:020000040000FA
:020000000528D1
:040002000034003492
:08000800402C0F248601C90100
:100010002E14AE142E15AE15883088008600AF0160
:10002000B0010B178B17181698171F1517282430B7
:10003000990083160313981683120313AE11201D23
:100040001F2820185F2803112A080D3A0319652874
:1000500003112C08013A03194028033A03194328D5
:10006000013A03194728073A03194B28013A0319A3
:100070004F28033A03195328013A031956286528D3
:100080002A08A100592830302A02A9005928303006
:100090002A02A800592830302A02A70059283030F7
:1000A0002A02A60059282A08A40059282A08A500CF
:1000B0005928AA01AB012010A01020111F28AA0165
:1000C000AB012010A01020111F28AA01AB01AC0128
:1000D0000530C8004808043EAC002908AA000024E6
:1000E000C80B6A280330AC002908AA000024063097
:1000F000AC002808AA0000240530AC002808AA009B
:1001000000240230AC002808AA0000240330AC0010
:100110002708AA0000240130AC002708AA00002408
:1001200003102608A2070318A30AA001031121083F
:10013000583A0319A428013A0319A628033A0319C7
:10014000A8281C3A0319AB28A011AD28A015AD288A
:10015000A0112016AD28A015201603112B3024065F
:100160000319B628A016A01D2017B828A01920171B
:100170000311593025060319A017A0142D1CBE2801
:1001800085128316031398168312031324309900E3
:100190002D10A001A101A201A301A401A501A601A6
:0E01A000A701A801A901AC01AA01AB011F280B
:100800000310AA0DAB0DAC0B002C03102A08A20795
:100810002B0803182B0FA307AA01AB0108008312B2
:1008200003136430810083018501860187018801FB
:1008300089018A0120308B00313090000030970010
:100840009030980081309F008316D73081001F3090
:10085000850000308600C0308700003088000030FE
:1008600089008C018C160C160C170C148D01A63007
:100870009800813099000F309F0083120313080005
:10088000F000030E8301F1000A08F2008A01040857
:10089000F300740884000B198B1E5B2CA018082D24
:1008A0002E18C72CAE18CF2C2E19D72CC9184914C6
:1008B0000B11C918D72C0C1C622CC91849140C1028
:1008C000C918D72C0C1FB82C1F19B82C2E19752C31
:1008D000A01CD72C1E080C3EFA3E031CD72C1E0869
:1008E000003E0C3E031C872C8E2C3F301E06031945
:1008F000B42C1E08C03E403E031C8E2C1E08003E39
:10090000C13E031C872C0C130B111F15712DAF0A50
:100910002F080319B00A301A8E2C972C0710301AA2
:100920000714AF03FF302F06031D972CB0030F30C1
:10093000B0050430C8002F08B1003008B200B10D76
:10094000B20DC80B9F2C0C30C80009100911B21B46
:10095000091589148910B10DB20DC80BA62C091404
:100960000C130B111F15712D2E110C13C914712DA1
:100970000C1EE02C2D18C42CAE19C42C83160313A6
:10098000981283120313712D24309900712D851C48
:100990002E100310860D031806140B11712D051E61
:1009A000AE100310880D031808140B11712D0C13D1
:1009B000C914491C712D49101F1D1F150C10712DD4
:1009C0008C1A8C1E072DA01CEF2C8316031398166F
:1009D000831203132130990099001A08712D981C75
:1009E000FC2C181220141A08AA001A08AB002015B3
:1009F0001816AC0AAC0A712D1A08AA000311203A85
:100A00000319052D2015AC0A712DAA01712D712D28
:100A1000201A242DA01E182DA019132D0310860CAA
:100A200003188617582D0310880C03188817582DA3
:100A3000A0191F2D0310860D03180614582D03103E
:100A4000880D03180814582D200860390311003A46
:100A50000319332D603A03193C2D403A0319452DF3
:100A6000603A03194E2D0310860D03180614031067
:100A7000880D03180814582D0310860C03188617C8
:100A80000310880C03188817582D0310860D0318BF
:100A900006140310880C03188817582D0310860CB1
:100AA0000318861703100310880D03180814582D17
:100AB000003003112206031D6A2D003003112306A6
:100AC000031D682D2D14A201A3010B11A010712D7F
:100AD000A303A203A203A01B8516A01F85120B115E
:100AE000712D0408F4007308840072088A00710EE6
:080AF0008300F00E700E0900F6
:02400E003A3F37
:00000001FF
